{"contracts/UserRegistry.sol":{"UserRegistry":{"abi":[{"inputs":[{"internalType":"address","name":"_user","type":"address"},{"internalType":"string","name":"_badge","type":"string"}],"name":"addBadge","outputs":[],"stateMutability":"nonpayable","type":"function"},{"inputs":[{"internalType":"address","name":"_walletAddress","type":"address"}],"name":"getBadges","outputs":[{"internalType":"string[]","name":"","type":"string[]"}],"stateMutability":"view","type":"function"},{"inputs":[{"internalType":"address","name":"_walletAddress","type":"address"}],"name":"getUser","outputs":[{"components":[{"internalType":"string","name":"name","type":"string"},{"internalType":"string","name":"image","type":"string"},{"internalType":"string[]","name":"badges","type":"string[]"}],"internalType":"struct UserRegistry.User","name":"","type":"tuple"}],"stateMutability":"view","type":"function"},{"inputs":[{"internalType":"string","name":"_name","type":"string"},{"internalType":"string","name":"_image","type":"string"}],"name":"registerUser","outputs":[],"stateMutability":"nonpayable","type":"function"},{"inputs":[{"internalType":"string","name":"_name","type":"string"},{"internalType":"string","name":"_image","type":"string"},{"internalType":"address","name":"_wallet","type":"address"}],"name":"registerUserToWallet","outputs":[],"stateMutability":"nonpayable","type":"function"},{"inputs":[{"internalType":"address","name":"","type":"address"}],"name":"users","outputs":[{"internalType":"string","name":"name","type":"string"},{"internalType":"string","name":"image","type":"string"}],"stateMutability":"view","type":"function"}],"evm":{"bytecode":{"linkReferences":{},"object":"6080604052348015600f57600080fd5b50610d8e8061001f6000396000f3fe608060405234801561001057600080fd5b50600436106100625760003560e01c806303828e45146100675780631d2e4afd1461009057806362a251cc146100a55780636f77926b146100b8578063a87430ba146100d8578063b0779d11146100f9575b600080fd5b61007a61007536600461082b565b61010c565b6040516100879190610893565b60405180910390f35b6100a361009e36600461099d565b610273565b005b6100a36100b3366004610a06565b6102fd565b6100cb6100c636600461082b565b610391565b6040516100879190610a7f565b6100eb6100e636600461082b565b61064c565b604051610087929190610b25565b6100a3610107366004610b53565b610778565b6001600160a01b03811660009081526020819052604081208054606092919061013490610b8b565b9050116101885760405162461bcd60e51b815260206004820152601e60248201527f4e6f20757365722065786973747320666f7220746869732077616c6c6574000060448201526064015b60405180910390fd5b6001600160a01b03821660009081526020818152604080832060020180548251818502810185019093528083529193909284015b828210156102685783829060005260206000200180546101db90610b8b565b80601f016020809104026020016040519081016040528092919081815260200182805461020790610b8b565b80156102545780601f1061022957610100808354040283529160200191610254565b820191906000526020600020905b81548152906001019060200180831161023757829003601f168201915b5050505050815260200190600101906101bc565b505050509050919050565b336000908152602081905260409020805461028d90610b8b565b1590506102ac5760405162461bcd60e51b815260040161017f90610bc5565b6003825110156102ce5760405162461bcd60e51b815260040161017f90610c0b565b336000908152602081905260409020806102e88482610c99565b50600181016102f78382610c99565b50505050565b336000908152602081905260409020805461031790610b8b565b1590506103365760405162461bcd60e51b815260040161017f90610bc5565b6003835110156103585760405162461bcd60e51b815260040161017f90610c0b565b6001600160a01b03811660009081526020819052604090208061037b8582610c99565b506001810161038a8482610c99565b5050505050565b6103b560405180606001604052806060815260200160608152602001606081525090565b6001600160a01b038216600090815260208190526040812080546103d890610b8b565b9050116104275760405162461bcd60e51b815260206004820152601e60248201527f4e6f20757365722065786973747320666f7220746869732077616c6c65740000604482015260640161017f565b6001600160a01b0382166000908152602081905260409081902081516060810190925280548290829061045990610b8b565b80601f016020809104026020016040519081016040528092919081815260200182805461048590610b8b565b80156104d25780601f106104a7576101008083540402835291602001916104d2565b820191906000526020600020905b8154815290600101906020018083116104b557829003601f168201915b505050505081526020016001820180546104eb90610b8b565b80601f016020809104026020016040519081016040528092919081815260200182805461051790610b8b565b80156105645780601f1061053957610100808354040283529160200191610564565b820191906000526020600020905b81548152906001019060200180831161054757829003601f168201915b5050505050815260200160028201805480602002602001604051908101604052809291908181526020016000905b8282101561063e5783829060005260206000200180546105b190610b8b565b80601f01602080910402602001604051908101604052809291908181526020018280546105dd90610b8b565b801561062a5780601f106105ff5761010080835404028352916020019161062a565b820191906000526020600020905b81548152906001019060200180831161060d57829003601f168201915b505050505081526020019060010190610592565b505050915250909392505050565b60006020819052908152604090208054819061066790610b8b565b80601f016020809104026020016040519081016040528092919081815260200182805461069390610b8b565b80156106e05780601f106106b5576101008083540402835291602001916106e0565b820191906000526020600020905b8154815290600101906020018083116106c357829003601f168201915b5050505050908060010180546106f590610b8b565b80601f016020809104026020016040519081016040528092919081815260200182805461072190610b8b565b801561076e5780601f106107435761010080835404028352916020019161076e565b820191906000526020600020905b81548152906001019060200180831161075157829003601f168201915b5050505050905082565b336000908152602081905260408120805461079290610b8b565b9050116107d75760405162461bcd60e51b8152602060048201526013602482015272155cd95c881b9bdd081c9959da5cdd195c9959606a1b604482015260640161017f565b6001600160a01b0382166000908152602081815260408220600201805460018101825590835291200161080a8282610c99565b505050565b80356001600160a01b038116811461082657600080fd5b919050565b60006020828403121561083d57600080fd5b6108468261080f565b9392505050565b6000815180845260005b8181101561087357602081850181015186830182015201610857565b506000602082860101526020601f19601f83011685010191505092915050565b6000602082016020835280845180835260408501915060408160051b86010192506020860160005b828110156108ec57603f198786030184526108d785835161084d565b945060209384019391909101906001016108bb565b50929695505050505050565b634e487b7160e01b600052604160045260246000fd5b600082601f83011261091f57600080fd5b813567ffffffffffffffff811115610939576109396108f8565b604051601f8201601f19908116603f0116810167ffffffffffffffff81118282101715610968576109686108f8565b60405281815283820160200185101561098057600080fd5b816020850160208301376000918101602001919091529392505050565b600080604083850312156109b057600080fd5b823567ffffffffffffffff8111156109c757600080fd5b6109d38582860161090e565b925050602083013567ffffffffffffffff8111156109f057600080fd5b6109fc8582860161090e565b9150509250929050565b600080600060608486031215610a1b57600080fd5b833567ffffffffffffffff811115610a3257600080fd5b610a3e8682870161090e565b935050602084013567ffffffffffffffff811115610a5b57600080fd5b610a678682870161090e565b925050610a766040850161080f565b90509250925092565b602081526000825160606020840152610a9b608084018261084d565b90506020840151601f19848303016040850152610ab8828261084d565b6040860151858203601f190160608701528051808352919350602090810192508084019190600582901b85010160005b82811015610b1957601f19868303018452610b0482865161084d565b60209586019594909401939150600101610ae8565b50979650505050505050565b604081526000610b38604083018561084d565b8281036020840152610b4a818561084d565b95945050505050565b60008060408385031215610b6657600080fd5b610b6f8361080f565b9150602083013567ffffffffffffffff8111156109f057600080fd5b600181811c90821680610b9f57607f821691505b602082108103610bbf57634e487b7160e01b600052602260045260246000fd5b50919050565b60208082526026908201527f5573657220616c7265616479207265676973746572656420746f2074686973206040820152651dd85b1b195d60d21b606082015260800190565b60208082526027908201527f4e616d65206d757374206265206174206c6561737420332063686172616374656040820152667273206c6f6e6760c81b606082015260800190565b601f82111561080a57806000526020600020601f840160051c81016020851015610c795750805b601f840160051c820191505b8181101561038a5760008155600101610c85565b815167ffffffffffffffff811115610cb357610cb36108f8565b610cc781610cc18454610b8b565b84610c52565b6020601f821160018114610cfb5760008315610ce35750848201515b600019600385901b1c1916600184901b17845561038a565b600084815260208120601f198516915b82811015610d2b5787850151825560209485019460019092019101610d0b565b5084821015610d495786840151600019600387901b60f8161c191681555b50505050600190811b0190555056fea2646970667358221220d5ad8d38640e20d90e27e408c4a08f28a3767c4fb0196a39745c7d853af5fc5564736f6c634300081a0033","opcodes":"PUSH1 0x80 PUSH1 0x40 MSTORE CALLVALUE DUP1 ISZERO PUSH1 0xF JUMPI PUSH1 0x0 DUP1 REVERT JUMPDEST POP PUSH2 0xD8E DUP1 PUSH2 0x1F PUSH1 0x0 CODECOPY PUSH1 0x0 RETURN INVALID PUSH1 0x80 PUSH1 0x40 MSTORE CALLVALUE DUP1 ISZERO PUSH2 0x10 JUMPI PUSH1 0x0 DUP1 REVERT JUMPDEST POP PUSH1 0x4 CALLDATASIZE LT PUSH2 0x62 JUMPI PUSH1 0x0 CALLDATALOAD PUSH1 0xE0 SHR DUP1 PUSH4 0x3828E45 EQ PUSH2 0x67 JUMPI DUP1 PUSH4 0x1D2E4AFD EQ PUSH2 0x90 JUMPI DUP1 PUSH4 0x62A251CC EQ PUSH2 0xA5 JUMPI DUP1 PUSH4 0x6F77926B EQ PUSH2 0xB8 JUMPI DUP1 PUSH4 0xA87430BA EQ PUSH2 0xD8 JUMPI DUP1 PUSH4 0xB0779D11 EQ PUSH2 0xF9 JUMPI JUMPDEST PUSH1 0x0 DUP1 REVERT JUMPDEST PUSH2 0x7A PUSH2 0x75 CALLDATASIZE PUSH1 0x4 PUSH2 0x82B JUMP JUMPDEST PUSH2 0x10C JUMP JUMPDEST PUSH1 0x40 MLOAD PUSH2 0x87 SWAP2 SWAP1 PUSH2 0x893 JUMP JUMPDEST PUSH1 0x40 MLOAD DUP1 SWAP2 SUB SWAP1 RETURN JUMPDEST PUSH2 0xA3 PUSH2 0x9E CALLDATASIZE PUSH1 0x4 PUSH2 0x99D JUMP JUMPDEST PUSH2 0x273 JUMP JUMPDEST STOP JUMPDEST PUSH2 0xA3 PUSH2 0xB3 CALLDATASIZE PUSH1 0x4 PUSH2 0xA06 JUMP JUMPDEST PUSH2 0x2FD JUMP JUMPDEST PUSH2 0xCB PUSH2 0xC6 CALLDATASIZE PUSH1 0x4 PUSH2 0x82B JUMP JUMPDEST PUSH2 0x391 JUMP JUMPDEST PUSH1 0x40 MLOAD PUSH2 0x87 SWAP2 SWAP1 PUSH2 0xA7F JUMP JUMPDEST PUSH2 0xEB PUSH2 0xE6 CALLDATASIZE PUSH1 0x4 PUSH2 0x82B JUMP JUMPDEST PUSH2 0x64C JUMP JUMPDEST PUSH1 0x40 MLOAD PUSH2 0x87 SWAP3 SWAP2 SWAP1 PUSH2 0xB25 JUMP JUMPDEST PUSH2 0xA3 PUSH2 0x107 CALLDATASIZE PUSH1 0x4 PUSH2 0xB53 JUMP JUMPDEST PUSH2 0x778 JUMP JUMPDEST PUSH1 0x1 PUSH1 0x1 PUSH1 0xA0 SHL SUB DUP2 AND PUSH1 0x0 SWAP1 DUP2 MSTORE PUSH1 0x20 DUP2 SWAP1 MSTORE PUSH1 0x40 DUP2 KECCAK256 DUP1 SLOAD PUSH1 0x60 SWAP3 SWAP2 SWAP1 PUSH2 0x134 SWAP1 PUSH2 0xB8B JUMP JUMPDEST SWAP1 POP GT PUSH2 0x188 JUMPI PUSH1 0x40 MLOAD PUSH3 0x461BCD PUSH1 0xE5 SHL DUP2 MSTORE PUSH1 0x20 PUSH1 0x4 DUP3 ADD MSTORE PUSH1 0x1E PUSH1 0x24 DUP3 ADD MSTORE PUSH32 0x4E6F20757365722065786973747320666F7220746869732077616C6C65740000 PUSH1 0x44 DUP3 ADD MSTORE PUSH1 0x64 ADD JUMPDEST PUSH1 0x40 MLOAD DUP1 SWAP2 SUB SWAP1 REVERT JUMPDEST PUSH1 0x1 PUSH1 0x1 PUSH1 0xA0 SHL SUB DUP3 AND PUSH1 0x0 SWAP1 DUP2 MSTORE PUSH1 0x20 DUP2 DUP2 MSTORE PUSH1 0x40 DUP1 DUP4 KECCAK256 PUSH1 0x2 ADD DUP1 SLOAD DUP3 MLOAD DUP2 DUP6 MUL DUP2 ADD DUP6 ADD SWAP1 SWAP4 MSTORE DUP1 DUP4 MSTORE SWAP2 SWAP4 SWAP1 SWAP3 DUP5 ADD JUMPDEST DUP3 DUP3 LT ISZERO PUSH2 0x268 JUMPI DUP4 DUP3 SWAP1 PUSH1 0x0 MSTORE PUSH1 0x20 PUSH1 0x0 KECCAK256 ADD DUP1 SLOAD PUSH2 0x1DB SWAP1 PUSH2 0xB8B JUMP JUMPDEST DUP1 PUSH1 0x1F ADD PUSH1 0x20 DUP1 SWAP2 DIV MUL PUSH1 0x20 ADD PUSH1 0x40 MLOAD SWAP1 DUP2 ADD PUSH1 0x40 MSTORE DUP1 SWAP3 SWAP2 SWAP1 DUP2 DUP2 MSTORE PUSH1 0x20 ADD DUP3 DUP1 SLOAD PUSH2 0x207 SWAP1 PUSH2 0xB8B JUMP JUMPDEST DUP1 ISZERO PUSH2 0x254 JUMPI DUP1 PUSH1 0x1F LT PUSH2 0x229 JUMPI PUSH2 0x100 DUP1 DUP4 SLOAD DIV MUL DUP4 MSTORE SWAP2 PUSH1 0x20 ADD SWAP2 PUSH2 0x254 JUMP JUMPDEST DUP3 ADD SWAP2 SWAP1 PUSH1 0x0 MSTORE PUSH1 0x20 PUSH1 0x0 KECCAK256 SWAP1 JUMPDEST DUP2 SLOAD DUP2 MSTORE SWAP1 PUSH1 0x1 ADD SWAP1 PUSH1 0x20 ADD DUP1 DUP4 GT PUSH2 0x237 JUMPI DUP3 SWAP1 SUB PUSH1 0x1F AND DUP3 ADD SWAP2 JUMPDEST POP POP POP POP POP DUP2 MSTORE PUSH1 0x20 ADD SWAP1 PUSH1 0x1 ADD SWAP1 PUSH2 0x1BC JUMP JUMPDEST POP POP POP POP SWAP1 POP SWAP2 SWAP1 POP JUMP JUMPDEST CALLER PUSH1 0x0 SWAP1 DUP2 MSTORE PUSH1 0x20 DUP2 SWAP1 MSTORE PUSH1 0x40 SWAP1 KECCAK256 DUP1 SLOAD PUSH2 0x28D SWAP1 PUSH2 0xB8B JUMP JUMPDEST ISZERO SWAP1 POP PUSH2 0x2AC JUMPI PUSH1 0x40 MLOAD PUSH3 0x461BCD PUSH1 0xE5 SHL DUP2 MSTORE PUSH1 0x4 ADD PUSH2 0x17F SWAP1 PUSH2 0xBC5 JUMP JUMPDEST PUSH1 0x3 DUP3 MLOAD LT ISZERO PUSH2 0x2CE JUMPI PUSH1 0x40 MLOAD PUSH3 0x461BCD PUSH1 0xE5 SHL DUP2 MSTORE PUSH1 0x4 ADD PUSH2 0x17F SWAP1 PUSH2 0xC0B JUMP JUMPDEST CALLER PUSH1 0x0 SWAP1 DUP2 MSTORE PUSH1 0x20 DUP2 SWAP1 MSTORE PUSH1 0x40 SWAP1 KECCAK256 DUP1 PUSH2 0x2E8 DUP5 DUP3 PUSH2 0xC99 JUMP JUMPDEST POP PUSH1 0x1 DUP2 ADD PUSH2 0x2F7 DUP4 DUP3 PUSH2 0xC99 JUMP JUMPDEST POP POP POP POP JUMP JUMPDEST CALLER PUSH1 0x0 SWAP1 DUP2 MSTORE PUSH1 0x20 DUP2 SWAP1 MSTORE PUSH1 0x40 SWAP1 KECCAK256 DUP1 SLOAD PUSH2 0x317 SWAP1 PUSH2 0xB8B JUMP JUMPDEST ISZERO SWAP1 POP PUSH2 0x336 JUMPI PUSH1 0x40 MLOAD PUSH3 0x461BCD PUSH1 0xE5 SHL DUP2 MSTORE PUSH1 0x4 ADD PUSH2 0x17F SWAP1 PUSH2 0xBC5 JUMP JUMPDEST PUSH1 0x3 DUP4 MLOAD LT ISZERO PUSH2 0x358 JUMPI PUSH1 0x40 MLOAD PUSH3 0x461BCD PUSH1 0xE5 SHL DUP2 MSTORE PUSH1 0x4 ADD PUSH2 0x17F SWAP1 PUSH2 0xC0B JUMP JUMPDEST PUSH1 0x1 PUSH1 0x1 PUSH1 0xA0 SHL SUB DUP2 AND PUSH1 0x0 SWAP1 DUP2 MSTORE PUSH1 0x20 DUP2 SWAP1 MSTORE PUSH1 0x40 SWAP1 KECCAK256 DUP1 PUSH2 0x37B DUP6 DUP3 PUSH2 0xC99 JUMP JUMPDEST POP PUSH1 0x1 DUP2 ADD PUSH2 0x38A DUP5 DUP3 PUSH2 0xC99 JUMP JUMPDEST POP POP POP POP POP JUMP JUMPDEST PUSH2 0x3B5 PUSH1 0x40 MLOAD DUP1 PUSH1 0x60 ADD PUSH1 0x40 MSTORE DUP1 PUSH1 0x60 DUP2 MSTORE PUSH1 0x20 ADD PUSH1 0x60 DUP2 MSTORE PUSH1 0x20 ADD PUSH1 0x60 DUP2 MSTORE POP SWAP1 JUMP JUMPDEST PUSH1 0x1 PUSH1 0x1 PUSH1 0xA0 SHL SUB DUP3 AND PUSH1 0x0 SWAP1 DUP2 MSTORE PUSH1 0x20 DUP2 SWAP1 MSTORE PUSH1 0x40 DUP2 KECCAK256 DUP1 SLOAD PUSH2 0x3D8 SWAP1 PUSH2 0xB8B JUMP JUMPDEST SWAP1 POP GT PUSH2 0x427 JUMPI PUSH1 0x40 MLOAD PUSH3 0x461BCD PUSH1 0xE5 SHL DUP2 MSTORE PUSH1 0x20 PUSH1 0x4 DUP3 ADD MSTORE PUSH1 0x1E PUSH1 0x24 DUP3 ADD MSTORE PUSH32 0x4E6F20757365722065786973747320666F7220746869732077616C6C65740000 PUSH1 0x44 DUP3 ADD MSTORE PUSH1 0x64 ADD PUSH2 0x17F JUMP JUMPDEST PUSH1 0x1 PUSH1 0x1 PUSH1 0xA0 SHL SUB DUP3 AND PUSH1 0x0 SWAP1 DUP2 MSTORE PUSH1 0x20 DUP2 SWAP1 MSTORE PUSH1 0x40 SWAP1 DUP2 SWAP1 KECCAK256 DUP2 MLOAD PUSH1 0x60 DUP2 ADD SWAP1 SWAP3 MSTORE DUP1 SLOAD DUP3 SWAP1 DUP3 SWAP1 PUSH2 0x459 SWAP1 PUSH2 0xB8B JUMP JUMPDEST DUP1 PUSH1 0x1F ADD PUSH1 0x20 DUP1 SWAP2 DIV MUL PUSH1 0x20 ADD PUSH1 0x40 MLOAD SWAP1 DUP2 ADD PUSH1 0x40 MSTORE DUP1 SWAP3 SWAP2 SWAP1 DUP2 DUP2 MSTORE PUSH1 0x20 ADD DUP3 DUP1 SLOAD PUSH2 0x485 SWAP1 PUSH2 0xB8B JUMP JUMPDEST DUP1 ISZERO PUSH2 0x4D2 JUMPI DUP1 PUSH1 0x1F LT PUSH2 0x4A7 JUMPI PUSH2 0x100 DUP1 DUP4 SLOAD DIV MUL DUP4 MSTORE SWAP2 PUSH1 0x20 ADD SWAP2 PUSH2 0x4D2 JUMP JUMPDEST DUP3 ADD SWAP2 SWAP1 PUSH1 0x0 MSTORE PUSH1 0x20 PUSH1 0x0 KECCAK256 SWAP1 JUMPDEST DUP2 SLOAD DUP2 MSTORE SWAP1 PUSH1 0x1 ADD SWAP1 PUSH1 0x20 ADD DUP1 DUP4 GT PUSH2 0x4B5 JUMPI DUP3 SWAP1 SUB PUSH1 0x1F AND DUP3 ADD SWAP2 JUMPDEST POP POP POP POP POP DUP2 MSTORE PUSH1 0x20 ADD PUSH1 0x1 DUP3 ADD DUP1 SLOAD PUSH2 0x4EB SWAP1 PUSH2 0xB8B JUMP JUMPDEST DUP1 PUSH1 0x1F ADD PUSH1 0x20 DUP1 SWAP2 DIV MUL PUSH1 0x20 ADD PUSH1 0x40 MLOAD SWAP1 DUP2 ADD PUSH1 0x40 MSTORE DUP1 SWAP3 SWAP2 SWAP1 DUP2 DUP2 MSTORE PUSH1 0x20 ADD DUP3 DUP1 SLOAD PUSH2 0x517 SWAP1 PUSH2 0xB8B JUMP JUMPDEST DUP1 ISZERO PUSH2 0x564 JUMPI DUP1 PUSH1 0x1F LT PUSH2 0x539 JUMPI PUSH2 0x100 DUP1 DUP4 SLOAD DIV MUL DUP4 MSTORE SWAP2 PUSH1 0x20 ADD SWAP2 PUSH2 0x564 JUMP JUMPDEST DUP3 ADD SWAP2 SWAP1 PUSH1 0x0 MSTORE PUSH1 0x20 PUSH1 0x0 KECCAK256 SWAP1 JUMPDEST DUP2 SLOAD DUP2 MSTORE SWAP1 PUSH1 0x1 ADD SWAP1 PUSH1 0x20 ADD DUP1 DUP4 GT PUSH2 0x547 JUMPI DUP3 SWAP1 SUB PUSH1 0x1F AND DUP3 ADD SWAP2 JUMPDEST POP POP POP POP POP DUP2 MSTORE PUSH1 0x20 ADD PUSH1 0x2 DUP3 ADD DUP1 SLOAD DUP1 PUSH1 0x20 MUL PUSH1 0x20 ADD PUSH1 0x40 MLOAD SWAP1 DUP2 ADD PUSH1 0x40 MSTORE DUP1 SWAP3 SWAP2 SWAP1 DUP2 DUP2 MSTORE PUSH1 0x20 ADD PUSH1 0x0 SWAP1 JUMPDEST DUP3 DUP3 LT ISZERO PUSH2 0x63E JUMPI DUP4 DUP3 SWAP1 PUSH1 0x0 MSTORE PUSH1 0x20 PUSH1 0x0 KECCAK256 ADD DUP1 SLOAD PUSH2 0x5B1 SWAP1 PUSH2 0xB8B JUMP JUMPDEST DUP1 PUSH1 0x1F ADD PUSH1 0x20 DUP1 SWAP2 DIV MUL PUSH1 0x20 ADD PUSH1 0x40 MLOAD SWAP1 DUP2 ADD PUSH1 0x40 MSTORE DUP1 SWAP3 SWAP2 SWAP1 DUP2 DUP2 MSTORE PUSH1 0x20 ADD DUP3 DUP1 SLOAD PUSH2 0x5DD SWAP1 PUSH2 0xB8B JUMP JUMPDEST DUP1 ISZERO PUSH2 0x62A JUMPI DUP1 PUSH1 0x1F LT PUSH2 0x5FF JUMPI PUSH2 0x100 DUP1 DUP4 SLOAD DIV MUL DUP4 MSTORE SWAP2 PUSH1 0x20 ADD SWAP2 PUSH2 0x62A JUMP JUMPDEST DUP3 ADD SWAP2 SWAP1 PUSH1 0x0 MSTORE PUSH1 0x20 PUSH1 0x0 KECCAK256 SWAP1 JUMPDEST DUP2 SLOAD DUP2 MSTORE SWAP1 PUSH1 0x1 ADD SWAP1 PUSH1 0x20 ADD DUP1 DUP4 GT PUSH2 0x60D JUMPI DUP3 SWAP1 SUB PUSH1 0x1F AND DUP3 ADD SWAP2 JUMPDEST POP POP POP POP POP DUP2 MSTORE PUSH1 0x20 ADD SWAP1 PUSH1 0x1 ADD SWAP1 PUSH2 0x592 JUMP JUMPDEST POP POP POP SWAP2 MSTORE POP SWAP1 SWAP4 SWAP3 POP POP POP JUMP JUMPDEST PUSH1 0x0 PUSH1 0x20 DUP2 SWAP1 MSTORE SWAP1 DUP2 MSTORE PUSH1 0x40 SWAP1 KECCAK256 DUP1 SLOAD DUP2 SWAP1 PUSH2 0x667 SWAP1 PUSH2 0xB8B JUMP JUMPDEST DUP1 PUSH1 0x1F ADD PUSH1 0x20 DUP1 SWAP2 DIV MUL PUSH1 0x20 ADD PUSH1 0x40 MLOAD SWAP1 DUP2 ADD PUSH1 0x40 MSTORE DUP1 SWAP3 SWAP2 SWAP1 DUP2 DUP2 MSTORE PUSH1 0x20 ADD DUP3 DUP1 SLOAD PUSH2 0x693 SWAP1 PUSH2 0xB8B JUMP JUMPDEST DUP1 ISZERO PUSH2 0x6E0 JUMPI DUP1 PUSH1 0x1F LT PUSH2 0x6B5 JUMPI PUSH2 0x100 DUP1 DUP4 SLOAD DIV MUL DUP4 MSTORE SWAP2 PUSH1 0x20 ADD SWAP2 PUSH2 0x6E0 JUMP JUMPDEST DUP3 ADD SWAP2 SWAP1 PUSH1 0x0 MSTORE PUSH1 0x20 PUSH1 0x0 KECCAK256 SWAP1 JUMPDEST DUP2 SLOAD DUP2 MSTORE SWAP1 PUSH1 0x1 ADD SWAP1 PUSH1 0x20 ADD DUP1 DUP4 GT PUSH2 0x6C3 JUMPI DUP3 SWAP1 SUB PUSH1 0x1F AND DUP3 ADD SWAP2 JUMPDEST POP POP POP POP POP SWAP1 DUP1 PUSH1 0x1 ADD DUP1 SLOAD PUSH2 0x6F5 SWAP1 PUSH2 0xB8B JUMP JUMPDEST DUP1 PUSH1 0x1F ADD PUSH1 0x20 DUP1 SWAP2 DIV MUL PUSH1 0x20 ADD PUSH1 0x40 MLOAD SWAP1 DUP2 ADD PUSH1 0x40 MSTORE DUP1 SWAP3 SWAP2 SWAP1 DUP2 DUP2 MSTORE PUSH1 0x20 ADD DUP3 DUP1 SLOAD PUSH2 0x721 SWAP1 PUSH2 0xB8B JUMP JUMPDEST DUP1 ISZERO PUSH2 0x76E JUMPI DUP1 PUSH1 0x1F LT PUSH2 0x743 JUMPI PUSH2 0x100 DUP1 DUP4 SLOAD DIV MUL DUP4 MSTORE SWAP2 PUSH1 0x20 ADD SWAP2 PUSH2 0x76E JUMP JUMPDEST DUP3 ADD SWAP2 SWAP1 PUSH1 0x0 MSTORE PUSH1 0x20 PUSH1 0x0 KECCAK256 SWAP1 JUMPDEST DUP2 SLOAD DUP2 MSTORE SWAP1 PUSH1 0x1 ADD SWAP1 PUSH1 0x20 ADD DUP1 DUP4 GT PUSH2 0x751 JUMPI DUP3 SWAP1 SUB PUSH1 0x1F AND DUP3 ADD SWAP2 JUMPDEST POP POP POP POP POP SWAP1 POP DUP3 JUMP JUMPDEST CALLER PUSH1 0x0 SWAP1 DUP2 MSTORE PUSH1 0x20 DUP2 SWAP1 MSTORE PUSH1 0x40 DUP2 KECCAK256 DUP1 SLOAD PUSH2 0x792 SWAP1 PUSH2 0xB8B JUMP JUMPDEST SWAP1 POP GT PUSH2 0x7D7 JUMPI PUSH1 0x40 MLOAD PUSH3 0x461BCD PUSH1 0xE5 SHL DUP2 MSTORE PUSH1 0x20 PUSH1 0x4 DUP3 ADD MSTORE PUSH1 0x13 PUSH1 0x24 DUP3 ADD MSTORE PUSH19 0x155CD95C881B9BDD081C9959DA5CDD195C9959 PUSH1 0x6A SHL PUSH1 0x44 DUP3 ADD MSTORE PUSH1 0x64 ADD PUSH2 0x17F JUMP JUMPDEST PUSH1 0x1 PUSH1 0x1 PUSH1 0xA0 SHL SUB DUP3 AND PUSH1 0x0 SWAP1 DUP2 MSTORE PUSH1 0x20 DUP2 DUP2 MSTORE PUSH1 0x40 DUP3 KECCAK256 PUSH1 0x2 ADD DUP1 SLOAD PUSH1 0x1 DUP2 ADD DUP3 SSTORE SWAP1 DUP4 MSTORE SWAP2 KECCAK256 ADD PUSH2 0x80A DUP3 DUP3 PUSH2 0xC99 JUMP JUMPDEST POP POP POP JUMP JUMPDEST DUP1 CALLDATALOAD PUSH1 0x1 PUSH1 0x1 PUSH1 0xA0 SHL SUB DUP2 AND DUP2 EQ PUSH2 0x826 JUMPI PUSH1 0x0 DUP1 REVERT JUMPDEST SWAP2 SWAP1 POP JUMP JUMPDEST PUSH1 0x0 PUSH1 0x20 DUP3 DUP5 SUB SLT ISZERO PUSH2 0x83D JUMPI PUSH1 0x0 DUP1 REVERT JUMPDEST PUSH2 0x846 DUP3 PUSH2 0x80F JUMP JUMPDEST SWAP4 SWAP3 POP POP POP JUMP JUMPDEST PUSH1 0x0 DUP2 MLOAD DUP1 DUP5 MSTORE PUSH1 0x0 JUMPDEST DUP2 DUP2 LT ISZERO PUSH2 0x873 JUMPI PUSH1 0x20 DUP2 DUP6 ADD DUP2 ADD MLOAD DUP7 DUP4 ADD DUP3 ADD MSTORE ADD PUSH2 0x857 JUMP JUMPDEST POP PUSH1 0x0 PUSH1 0x20 DUP3 DUP7 ADD ADD MSTORE PUSH1 0x20 PUSH1 0x1F NOT PUSH1 0x1F DUP4 ADD AND DUP6 ADD ADD SWAP2 POP POP SWAP3 SWAP2 POP POP JUMP JUMPDEST PUSH1 0x0 PUSH1 0x20 DUP3 ADD PUSH1 0x20 DUP4 MSTORE DUP1 DUP5 MLOAD DUP1 DUP4 MSTORE PUSH1 0x40 DUP6 ADD SWAP2 POP PUSH1 0x40 DUP2 PUSH1 0x5 SHL DUP7 ADD ADD SWAP3 POP PUSH1 0x20 DUP7 ADD PUSH1 0x0 JUMPDEST DUP3 DUP2 LT ISZERO PUSH2 0x8EC JUMPI PUSH1 0x3F NOT DUP8 DUP7 SUB ADD DUP5 MSTORE PUSH2 0x8D7 DUP6 DUP4 MLOAD PUSH2 0x84D JUMP JUMPDEST SWAP5 POP PUSH1 0x20 SWAP4 DUP5 ADD SWAP4 SWAP2 SWAP1 SWAP2 ADD SWAP1 PUSH1 0x1 ADD PUSH2 0x8BB JUMP JUMPDEST POP SWAP3 SWAP7 SWAP6 POP POP POP POP POP POP JUMP JUMPDEST PUSH4 0x4E487B71 PUSH1 0xE0 SHL PUSH1 0x0 MSTORE PUSH1 0x41 PUSH1 0x4 MSTORE PUSH1 0x24 PUSH1 0x0 REVERT JUMPDEST PUSH1 0x0 DUP3 PUSH1 0x1F DUP4 ADD SLT PUSH2 0x91F JUMPI PUSH1 0x0 DUP1 REVERT JUMPDEST DUP2 CALLDATALOAD PUSH8 0xFFFFFFFFFFFFFFFF DUP2 GT ISZERO PUSH2 0x939 JUMPI PUSH2 0x939 PUSH2 0x8F8 JUMP JUMPDEST PUSH1 0x40 MLOAD PUSH1 0x1F DUP3 ADD PUSH1 0x1F NOT SWAP1 DUP2 AND PUSH1 0x3F ADD AND DUP2 ADD PUSH8 0xFFFFFFFFFFFFFFFF DUP2 GT DUP3 DUP3 LT OR ISZERO PUSH2 0x968 JUMPI PUSH2 0x968 PUSH2 0x8F8 JUMP JUMPDEST PUSH1 0x40 MSTORE DUP2 DUP2 MSTORE DUP4 DUP3 ADD PUSH1 0x20 ADD DUP6 LT ISZERO PUSH2 0x980 JUMPI PUSH1 0x0 DUP1 REVERT JUMPDEST DUP2 PUSH1 0x20 DUP6 ADD PUSH1 0x20 DUP4 ADD CALLDATACOPY PUSH1 0x0 SWAP2 DUP2 ADD PUSH1 0x20 ADD SWAP2 SWAP1 SWAP2 MSTORE SWAP4 SWAP3 POP POP POP JUMP JUMPDEST PUSH1 0x0 DUP1 PUSH1 0x40 DUP4 DUP6 SUB SLT ISZERO PUSH2 0x9B0 JUMPI PUSH1 0x0 DUP1 REVERT JUMPDEST DUP3 CALLDATALOAD PUSH8 0xFFFFFFFFFFFFFFFF DUP2 GT ISZERO PUSH2 0x9C7 JUMPI PUSH1 0x0 DUP1 REVERT JUMPDEST PUSH2 0x9D3 DUP6 DUP3 DUP7 ADD PUSH2 0x90E JUMP JUMPDEST SWAP3 POP POP PUSH1 0x20 DUP4 ADD CALLDATALOAD PUSH8 0xFFFFFFFFFFFFFFFF DUP2 GT ISZERO PUSH2 0x9F0 JUMPI PUSH1 0x0 DUP1 REVERT JUMPDEST PUSH2 0x9FC DUP6 DUP3 DUP7 ADD PUSH2 0x90E JUMP JUMPDEST SWAP2 POP POP SWAP3 POP SWAP3 SWAP1 POP JUMP JUMPDEST PUSH1 0x0 DUP1 PUSH1 0x0 PUSH1 0x60 DUP5 DUP7 SUB SLT ISZERO PUSH2 0xA1B JUMPI PUSH1 0x0 DUP1 REVERT JUMPDEST DUP4 CALLDATALOAD PUSH8 0xFFFFFFFFFFFFFFFF DUP2 GT ISZERO PUSH2 0xA32 JUMPI PUSH1 0x0 DUP1 REVERT JUMPDEST PUSH2 0xA3E DUP7 DUP3 DUP8 ADD PUSH2 0x90E JUMP JUMPDEST SWAP4 POP POP PUSH1 0x20 DUP5 ADD CALLDATALOAD PUSH8 0xFFFFFFFFFFFFFFFF DUP2 GT ISZERO PUSH2 0xA5B JUMPI PUSH1 0x0 DUP1 REVERT JUMPDEST PUSH2 0xA67 DUP7 DUP3 DUP8 ADD PUSH2 0x90E JUMP JUMPDEST SWAP3 POP POP PUSH2 0xA76 PUSH1 0x40 DUP6 ADD PUSH2 0x80F JUMP JUMPDEST SWAP1 POP SWAP3 POP SWAP3 POP SWAP3 JUMP JUMPDEST PUSH1 0x20 DUP2 MSTORE PUSH1 0x0 DUP3 MLOAD PUSH1 0x60 PUSH1 0x20 DUP5 ADD MSTORE PUSH2 0xA9B PUSH1 0x80 DUP5 ADD DUP3 PUSH2 0x84D JUMP JUMPDEST SWAP1 POP PUSH1 0x20 DUP5 ADD MLOAD PUSH1 0x1F NOT DUP5 DUP4 SUB ADD PUSH1 0x40 DUP6 ADD MSTORE PUSH2 0xAB8 DUP3 DUP3 PUSH2 0x84D JUMP JUMPDEST PUSH1 0x40 DUP7 ADD MLOAD DUP6 DUP3 SUB PUSH1 0x1F NOT ADD PUSH1 0x60 DUP8 ADD MSTORE DUP1 MLOAD DUP1 DUP4 MSTORE SWAP2 SWAP4 POP PUSH1 0x20 SWAP1 DUP2 ADD SWAP3 POP DUP1 DUP5 ADD SWAP2 SWAP1 PUSH1 0x5 DUP3 SWAP1 SHL DUP6 ADD ADD PUSH1 0x0 JUMPDEST DUP3 DUP2 LT ISZERO PUSH2 0xB19 JUMPI PUSH1 0x1F NOT DUP7 DUP4 SUB ADD DUP5 MSTORE PUSH2 0xB04 DUP3 DUP7 MLOAD PUSH2 0x84D JUMP JUMPDEST PUSH1 0x20 SWAP6 DUP7 ADD SWAP6 SWAP5 SWAP1 SWAP5 ADD SWAP4 SWAP2 POP PUSH1 0x1 ADD PUSH2 0xAE8 JUMP JUMPDEST POP SWAP8 SWAP7 POP POP POP POP POP POP POP JUMP JUMPDEST PUSH1 0x40 DUP2 MSTORE PUSH1 0x0 PUSH2 0xB38 PUSH1 0x40 DUP4 ADD DUP6 PUSH2 0x84D JUMP JUMPDEST DUP3 DUP2 SUB PUSH1 0x20 DUP5 ADD MSTORE PUSH2 0xB4A DUP2 DUP6 PUSH2 0x84D JUMP JUMPDEST SWAP6 SWAP5 POP POP POP POP POP JUMP JUMPDEST PUSH1 0x0 DUP1 PUSH1 0x40 DUP4 DUP6 SUB SLT ISZERO PUSH2 0xB66 JUMPI PUSH1 0x0 DUP1 REVERT JUMPDEST PUSH2 0xB6F DUP4 PUSH2 0x80F JUMP JUMPDEST SWAP2 POP PUSH1 0x20 DUP4 ADD CALLDATALOAD PUSH8 0xFFFFFFFFFFFFFFFF DUP2 GT ISZERO PUSH2 0x9F0 JUMPI PUSH1 0x0 DUP1 REVERT JUMPDEST PUSH1 0x1 DUP2 DUP2 SHR SWAP1 DUP3 AND DUP1 PUSH2 0xB9F JUMPI PUSH1 0x7F DUP3 AND SWAP2 POP JUMPDEST PUSH1 0x20 DUP3 LT DUP2 SUB PUSH2 0xBBF JUMPI PUSH4 0x4E487B71 PUSH1 0xE0 SHL PUSH1 0x0 MSTORE PUSH1 0x22 PUSH1 0x4 MSTORE PUSH1 0x24 PUSH1 0x0 REVERT JUMPDEST POP SWAP2 SWAP1 POP JUMP JUMPDEST PUSH1 0x20 DUP1 DUP3 MSTORE PUSH1 0x26 SWAP1 DUP3 ADD MSTORE PUSH32 0x5573657220616C7265616479207265676973746572656420746F207468697320 PUSH1 0x40 DUP3 ADD MSTORE PUSH6 0x1DD85B1B195D PUSH1 0xD2 SHL PUSH1 0x60 DUP3 ADD MSTORE PUSH1 0x80 ADD SWAP1 JUMP JUMPDEST PUSH1 0x20 DUP1 DUP3 MSTORE PUSH1 0x27 SWAP1 DUP3 ADD MSTORE PUSH32 0x4E616D65206D757374206265206174206C656173742033206368617261637465 PUSH1 0x40 DUP3 ADD MSTORE PUSH7 0x7273206C6F6E67 PUSH1 0xC8 SHL PUSH1 0x60 DUP3 ADD MSTORE PUSH1 0x80 ADD SWAP1 JUMP JUMPDEST PUSH1 0x1F DUP3 GT ISZERO PUSH2 0x80A JUMPI DUP1 PUSH1 0x0 MSTORE PUSH1 0x20 PUSH1 0x0 KECCAK256 PUSH1 0x1F DUP5 ADD PUSH1 0x5 SHR DUP2 ADD PUSH1 0x20 DUP6 LT ISZERO PUSH2 0xC79 JUMPI POP DUP1 JUMPDEST PUSH1 0x1F DUP5 ADD PUSH1 0x5 SHR DUP3 ADD SWAP2 POP JUMPDEST DUP2 DUP2 LT ISZERO PUSH2 0x38A JUMPI PUSH1 0x0 DUP2 SSTORE PUSH1 0x1 ADD PUSH2 0xC85 JUMP JUMPDEST DUP2 MLOAD PUSH8 0xFFFFFFFFFFFFFFFF DUP2 GT ISZERO PUSH2 0xCB3 JUMPI PUSH2 0xCB3 PUSH2 0x8F8 JUMP JUMPDEST PUSH2 0xCC7 DUP2 PUSH2 0xCC1 DUP5 SLOAD PUSH2 0xB8B JUMP JUMPDEST DUP5 PUSH2 0xC52 JUMP JUMPDEST PUSH1 0x20 PUSH1 0x1F DUP3 GT PUSH1 0x1 DUP2 EQ PUSH2 0xCFB JUMPI PUSH1 0x0 DUP4 ISZERO PUSH2 0xCE3 JUMPI POP DUP5 DUP3 ADD MLOAD JUMPDEST PUSH1 0x0 NOT PUSH1 0x3 DUP6 SWAP1 SHL SHR NOT AND PUSH1 0x1 DUP5 SWAP1 SHL OR DUP5 SSTORE PUSH2 0x38A JUMP JUMPDEST PUSH1 0x0 DUP5 DUP2 MSTORE PUSH1 0x20 DUP2 KECCAK256 PUSH1 0x1F NOT DUP6 AND SWAP2 JUMPDEST DUP3 DUP2 LT ISZERO PUSH2 0xD2B JUMPI DUP8 DUP6 ADD MLOAD DUP3 SSTORE PUSH1 0x20 SWAP5 DUP6 ADD SWAP5 PUSH1 0x1 SWAP1 SWAP3 ADD SWAP2 ADD PUSH2 0xD0B JUMP JUMPDEST POP DUP5 DUP3 LT ISZERO PUSH2 0xD49 JUMPI DUP7 DUP5 ADD MLOAD PUSH1 0x0 NOT PUSH1 0x3 DUP8 SWAP1 SHL PUSH1 0xF8 AND SHR NOT AND DUP2 SSTORE JUMPDEST POP POP POP POP PUSH1 0x1 SWAP1 DUP2 SHL ADD SWAP1 SSTORE POP JUMP INVALID LOG2 PUSH5 0x6970667358 0x22 SLT KECCAK256 0xD5 0xAD DUP14 CODESIZE PUSH5 0xE20D90E27 0xE4 ADDMOD 0xC4 LOG0 DUP16 0x28 LOG3 PUSH23 0x7C4FB0196A39745C7D853AF5FC5564736F6C634300081A STOP CALLER "},"methodIdentifiers":{"addBadge(address,string)":"b0779d11","getBadges(address)":"03828e45","getUser(address)":"6f77926b","registerUser(string,string)":"1d2e4afd","registerUserToWallet(string,string,address)":"62a251cc","users(address)":"a87430ba"}}}}}