{
  "_format": "hh-sol-artifact-1",
  "contractName": "PlanetDAO",
  "sourceName": "contracts/PlanetDAO.sol",
  "abi": [
    {
      "anonymous": false,
      "inputs": [
        {
          "indexed": false,
          "internalType": "address",
          "name": "communityAddress",
          "type": "address"
        }
      ],
      "name": "CommunityCreated",
      "type": "event"
    },
    {
      "inputs": [
        {
          "internalType": "uint256",
          "name": "",
          "type": "uint256"
        }
      ],
      "name": "communities",
      "outputs": [
        {
          "internalType": "address",
          "name": "",
          "type": "address"
        }
      ],
      "stateMutability": "view",
      "type": "function"
    },
    {
      "inputs": [
        {
          "internalType": "string",
          "name": "_name",
          "type": "string"
        },
        {
          "internalType": "string",
          "name": "_description",
          "type": "string"
        },
        {
          "internalType": "string",
          "name": "_startDate",
          "type": "string"
        },
        {
          "internalType": "string",
          "name": "_image",
          "type": "string"
        },
        {
          "internalType": "string",
          "name": "_brandingColor",
          "type": "string"
        },
        {
          "internalType": "string",
          "name": "_brandingLogo",
          "type": "string"
        },
        {
          "internalType": "uint256",
          "name": "_subscriptionPrice",
          "type": "uint256"
        }
      ],
      "name": "createCommunity",
      "outputs": [],
      "stateMutability": "nonpayable",
      "type": "function"
    },
    {
      "inputs": [],
      "name": "getCommunities",
      "outputs": [
        {
          "internalType": "address[]",
          "name": "",
          "type": "address[]"
        }
      ],
      "stateMutability": "view",
      "type": "function"
    }
  ],
  "bytecode": "0x6080604052348015600f57600080fd5b50613c0c8061001f6000396000f3fe608060405234801561001057600080fd5b50600436106100415760003560e01c80639a18369f14610046578063c251b5651461005b578063e590b56a14610079575b600080fd5b6100596100543660046102b1565b6100a4565b005b610063610173565b60405161007091906103d5565b60405180910390f35b61008c610087366004610421565b6101d5565b6040516001600160a01b039091168152602001610070565b600087878787878787336040516100ba906101ff565b6100cb989796959493929190610480565b604051809103906000f0801580156100e7573d6000803e3d6000fd5b50600080546001810182559080527f290decd9548b62a8d60345a988386fc84ba6bc95484008f6362f93160ef3e5630180546001600160a01b0319166001600160a01b0383169081179091556040519081529091507fb4108a188495a1a681cdc0750af164011025a1773b41e93ff3e628adc037dc299060200160405180910390a15050505050505050565b606060008054806020026020016040519081016040528092919081815260200182805480156101cb57602002820191906000526020600020905b81546001600160a01b031681526001909101906020018083116101ad575b5050505050905090565b600081815481106101e557600080fd5b6000918252602090912001546001600160a01b0316905081565b6136b98061051e83390190565b634e487b7160e01b600052604160045260246000fd5b600082601f83011261023357600080fd5b813567ffffffffffffffff81111561024d5761024d61020c565b604051601f8201601f19908116603f0116810167ffffffffffffffff8111828210171561027c5761027c61020c565b60405281815283820160200185101561029457600080fd5b816020850160208301376000918101602001919091529392505050565b600080600080600080600060e0888a0312156102cc57600080fd5b873567ffffffffffffffff8111156102e357600080fd5b6102ef8a828b01610222565b975050602088013567ffffffffffffffff81111561030c57600080fd5b6103188a828b01610222565b965050604088013567ffffffffffffffff81111561033557600080fd5b6103418a828b01610222565b955050606088013567ffffffffffffffff81111561035e57600080fd5b61036a8a828b01610222565b945050608088013567ffffffffffffffff81111561038757600080fd5b6103938a828b01610222565b93505060a088013567ffffffffffffffff8111156103b057600080fd5b6103bc8a828b01610222565b979a969950949793969295929450505060c09091013590565b602080825282518282018190526000918401906040840190835b818110156104165783516001600160a01b03168352602093840193909201916001016103ef565b509095945050505050565b60006020828403121561043357600080fd5b5035919050565b6000815180845260005b8181101561046057602081850181015186830182015201610444565b506000602082860101526020601f19601f83011685010191505092915050565b6101008152600061049561010083018b61043a565b82810360208401526104a7818b61043a565b905082810360408401526104bb818a61043a565b905082810360608401526104cf818961043a565b905082810360808401526104e3818861043a565b905082810360a08401526104f7818761043a565b60c084019590955250506001600160a01b039190911660e090910152969550505050505056fe608060405234801561001057600080fd5b506040516136b93803806136b983398101604081905261002f9161029e565b604080516101608101825289815260208101899052908101879052606081018690526080810185905260a0810184905260c081018390526001600160a01b03821660e082015242610100820152600061012082018190526101408201819052806100998b8261045f565b50602082015160018201906100ae908261045f565b50604082015160028201906100c3908261045f565b50606082015160038201906100d8908261045f565b50608082015160048201906100ed908261045f565b5060a08201516005820190610102908261045f565b5060c0820151600682015560e08201516007820180546001600160a01b039283166001600160a01b031991821617909155610100840151600884015561012084015160098401805491151560ff1992831617905561014090940151600a90930192909255929092166000818152600b6020526040812080549093166001908117909355600c8054938401815590527fdf6966c971051c3d54ec59162606531493a51404a002842f56009d7e5cf4a8c790910180549092161790555061051d95505050505050565b634e487b7160e01b600052604160045260246000fd5b600082601f8301126101f057600080fd5b81516001600160401b03811115610209576102096101c9565b604051601f8201601f19908116603f011681016001600160401b0381118282101715610237576102376101c9565b60405281815283820160200185101561024f57600080fd5b60005b8281101561026e57602081860181015183830182015201610252565b506000918101602001919091529392505050565b80516001600160a01b038116811461029957600080fd5b919050565b600080600080600080600080610100898b0312156102bb57600080fd5b88516001600160401b038111156102d157600080fd5b6102dd8b828c016101df565b60208b015190995090506001600160401b038111156102fb57600080fd5b6103078b828c016101df565b60408b015190985090506001600160401b0381111561032557600080fd5b6103318b828c016101df565b60608b015190975090506001600160401b0381111561034f57600080fd5b61035b8b828c016101df565b60808b015190965090506001600160401b0381111561037957600080fd5b6103858b828c016101df565b60a08b015190955090506001600160401b038111156103a357600080fd5b6103af8b828c016101df565b60c08b015190945092506103c7905060e08a01610282565b90509295985092959890939650565b600181811c908216806103ea57607f821691505b60208210810361040a57634e487b7160e01b600052602260045260246000fd5b50919050565b601f82111561045a57806000526020600020601f840160051c810160208510156104375750805b601f840160051c820191505b818110156104575760008155600101610443565b50505b505050565b81516001600160401b03811115610478576104786101c9565b61048c8161048684546103d6565b84610410565b6020601f8211600181146104c057600083156104a85750848201515b600019600385901b1c1916600184901b178455610457565b600084815260208120601f198516915b828110156104f057878501518255602094850194600190920191016104d0565b508482101561050e5786840151600019600387901b60f8161c191681555b50505050600190811b01905550565b61318d8061052c6000396000f3fe6080604052600436106100865760003560e01c8063b688a36311610059578063b688a36314610129578063cccc6fa614610131578063d02982cf14610146578063d66d9e191461016b578063f8ce9e5a1461018057600080fd5b806308ae4b0c1461008b5780639d036b71146100d05780639e656d69146100f25780639eab525314610114575b600080fd5b34801561009757600080fd5b506100bb6100a6366004610c3a565b600b6020526000908152604090205460ff1681565b60405190151581526020015b60405180910390f35b3480156100dc57600080fd5b506100f06100eb366004610d0f565b6101a2565b005b3480156100fe57600080fd5b50610107610321565b6040516100c79190610dd9565b34801561012057600080fd5b50610107610383565b6100f06103e3565b34801561013d57600080fd5b506100f061054c565b34801561015257600080fd5b50336000908152600b602052604090205460ff166100bb565b34801561017757600080fd5b506100f061062d565b34801561018c57600080fd5b50610195610704565b6040516100c79190610e6b565b60095460ff16156101ce5760405162461bcd60e51b81526004016101c590610f7f565b60405180910390fd5b6007546001600160a01b03163314806101fb5750336000908152600b602052604090205460ff1615156001145b6102535760405162461bcd60e51b8152602060048201526024808201527f4d7573742062652065697468657220746865206f776e6572206f722061206d6560448201526336b132b960e11b60648201526084016101c5565b60008585853330878760405161026890610c2d565b6102789796959493929190610fb6565b604051809103906000f080158015610294573d6000803e3d6000fd5b50600d80546001810182556000919091527fd7b6990105719101dabeb77144f2a3385c8033acd3af97e9423a695e81ad1eb50180546001600160a01b0319166001600160a01b0383169081179091556040519081529091507fc254a33e4aa027d4080f967be6c7ca87fd6279301a8afa325c696b4035f494939060200160405180910390a1505050505050565b6060600d80548060200260200160405190810160405280929190818152602001828054801561037957602002820191906000526020600020905b81546001600160a01b0316815260019091019060200180831161035b575b5050505050905090565b6060600c805480602002602001604051908101604052809291908181526020018280548015610379576020028201919060005260206000209081546001600160a01b0316815260019091019060200180831161035b575050505050905090565b60095460ff16156104065760405162461bcd60e51b81526004016101c590610f7f565b336000908152600b602052604090205460ff16156104595760405162461bcd60e51b815260206004820152601060248201526f20b63932b0b23c90309036b2b6b132b960811b60448201526064016101c5565b6006543410156104ab5760405162461bcd60e51b815260206004820152601f60248201527f496e73756666696369656e7420737562736372697074696f6e2070726963650060448201526064016101c5565b336000818152600b60205260408120805460ff19166001908117909155600c805480830182559083527fdf6966c971051c3d54ec59162606531493a51404a002842f56009d7e5cf4a8c70180546001600160a01b031916909317909255600a805490919061051a908490611045565b909155505060405133907f7073afa60b48e833a1a66ebb442bc8e0d19e9f3cc05f34bdcd1da22c8d87f27590600090a2565b60095460ff161561056f5760405162461bcd60e51b81526004016101c590610f7f565b6007546001600160a01b031633146105b95760405162461bcd60e51b815260206004820152600d60248201526c2737ba103a34329037bbb732b960991b60448201526064016101c5565b60405133907f7fb2e49c6d2dcc748cced4be404df4b502a5091d84f32f62fa7821b5f9231f6b90600090a26007546040516001600160a01b03909116904780156108fc02916000818181858888f1935050505015801561061d573d6000803e3d6000fd5b506009805460ff19166001179055565b60095460ff16156106505760405162461bcd60e51b81526004016101c590610f7f565b336000908152600b602052604090205460ff1661069e5760405162461bcd60e51b815260206004820152600c60248201526b2737ba10309036b2b6b132b960a11b60448201526064016101c5565b336000908152600b60205260408120805460ff19169055600a8054600192906106c890849061105e565b909155506106d7905033610b2c565b60405133907fc97a8bf3a3af557fe56cca51d77eeb41b7c07ea6f2d28390ba9d1841a0bf466d90600090a2565b61076c6040518061016001604052806060815260200160608152602001606081526020016060815260200160608152602001606081526020016000815260200160006001600160a01b0316815260200160008152602001600015158152602001600081525090565b60006040518061016001604052908160008201805461078a90611071565b80601f01602080910402602001604051908101604052809291908181526020018280546107b690611071565b80156108035780601f106107d857610100808354040283529160200191610803565b820191906000526020600020905b8154815290600101906020018083116107e657829003601f168201915b5050505050815260200160018201805461081c90611071565b80601f016020809104026020016040519081016040528092919081815260200182805461084890611071565b80156108955780601f1061086a57610100808354040283529160200191610895565b820191906000526020600020905b81548152906001019060200180831161087857829003601f168201915b505050505081526020016002820180546108ae90611071565b80601f01602080910402602001604051908101604052809291908181526020018280546108da90611071565b80156109275780601f106108fc57610100808354040283529160200191610927565b820191906000526020600020905b81548152906001019060200180831161090a57829003601f168201915b5050505050815260200160038201805461094090611071565b80601f016020809104026020016040519081016040528092919081815260200182805461096c90611071565b80156109b95780601f1061098e576101008083540402835291602001916109b9565b820191906000526020600020905b81548152906001019060200180831161099c57829003601f168201915b505050505081526020016004820180546109d290611071565b80601f01602080910402602001604051908101604052809291908181526020018280546109fe90611071565b8015610a4b5780601f10610a2057610100808354040283529160200191610a4b565b820191906000526020600020905b815481529060010190602001808311610a2e57829003601f168201915b50505050508152602001600582018054610a6490611071565b80601f0160208091040260200160405190810160405280929190818152602001828054610a9090611071565b8015610add5780601f10610ab257610100808354040283529160200191610add565b820191906000526020600020905b815481529060010190602001808311610ac057829003601f168201915b50505091835250506006820154602082015260078201546001600160a01b0316604082015260088201546060820152600982015460ff1615156080820152600a9091015460a090910152919050565b600c5460005b81811015610c2857826001600160a01b0316600c8281548110610b5757610b576110ab565b6000918252602090912001546001600160a01b031603610c2057600c610b7e60018461105e565b81548110610b8e57610b8e6110ab565b600091825260209091200154600c80546001600160a01b039092169183908110610bba57610bba6110ab565b9060005260206000200160006101000a8154816001600160a01b0302191690836001600160a01b03160217905550600c805480610bf957610bf96110c1565b600082815260209020810160001990810180546001600160a01b0319169055019055505050565b600101610b32565b505050565b612080806110d883390190565b600060208284031215610c4c57600080fd5b81356001600160a01b0381168114610c6357600080fd5b9392505050565b634e487b7160e01b600052604160045260246000fd5b600082601f830112610c9157600080fd5b813567ffffffffffffffff811115610cab57610cab610c6a565b604051601f8201601f19908116603f0116810167ffffffffffffffff81118282101715610cda57610cda610c6a565b604052818152838201602001851015610cf257600080fd5b816020850160208301376000918101602001919091529392505050565b600080600080600060a08688031215610d2757600080fd5b853567ffffffffffffffff811115610d3e57600080fd5b610d4a88828901610c80565b955050602086013567ffffffffffffffff811115610d6757600080fd5b610d7388828901610c80565b945050604086013567ffffffffffffffff811115610d9057600080fd5b610d9c88828901610c80565b93505060608601359150608086013567ffffffffffffffff811115610dc057600080fd5b610dcc88828901610c80565b9150509295509295909350565b602080825282518282018190526000918401906040840190835b81811015610e1a5783516001600160a01b0316835260209384019390920191600101610df3565b509095945050505050565b6000815180845260005b81811015610e4b57602081850181015186830182015201610e2f565b506000602082860101526020601f19601f83011685010191505092915050565b60208152600082516101606020840152610e89610180840182610e25565b90506020840151601f19848303016040850152610ea68282610e25565b9150506040840151601f19848303016060850152610ec48282610e25565b9150506060840151601f19848303016080850152610ee28282610e25565b9150506080840151601f198483030160a0850152610f008282610e25565b91505060a0840151601f198483030160c0850152610f1e8282610e25565b91505060c084015160e084015260e0840151610f466101008501826001600160a01b03169052565b50610100840151610120840152610120840151610f6861014085018215159052565b506101408401516101608401528091505092915050565b6020808252601a908201527f436f6d6d756e69747920686173206265656e2064656c65746564000000000000604082015260600190565b60e081526000610fc960e083018a610e25565b8281036020840152610fdb818a610e25565b90508281036040840152610fef8189610e25565b6001600160a01b0388811660608601528716608085015260a0840186905283810360c085015290506110218185610e25565b9a9950505050505050505050565b634e487b7160e01b600052601160045260246000fd5b808201808211156110585761105861102f565b92915050565b818103818111156110585761105861102f565b600181811c9082168061108557607f821691505b6020821081036110a557634e487b7160e01b600052602260045260246000fd5b50919050565b634e487b7160e01b600052603260045260246000fd5b634e487b7160e01b600052603160045260246000fdfe608060405234801561001057600080fd5b5060405161208038038061208083398101604081905261002f9161021a565b604080516101208101825288815260208101889052908101869052606081018290526001600160a01b03851660808201524260a082015260c08101839052600060e082018190526101008201819052806100898a8261038f565b506020820151600182019061009e908261038f565b50604082015160028201906100b3908261038f565b50606082015160038201906100c8908261038f565b5060808201516004820180546001600160a01b03199081166001600160a01b039384161790915560a0840151600584015560c0840151600684015560e08401516007840155610100909301516008909201805460ff191692151592909217909155600980549092169416939093179092555061044d945050505050565b634e487b7160e01b600052604160045260246000fd5b600082601f83011261016c57600080fd5b81516001600160401b0381111561018557610185610145565b604051601f8201601f19908116603f011681016001600160401b03811182821017156101b3576101b3610145565b6040528181528382016020018510156101cb57600080fd5b60005b828110156101ea576020818601810151838301820152016101ce565b506000918101602001919091529392505050565b80516001600160a01b038116811461021557600080fd5b919050565b600080600080600080600060e0888a03121561023557600080fd5b87516001600160401b0381111561024b57600080fd5b6102578a828b0161015b565b60208a015190985090506001600160401b0381111561027557600080fd5b6102818a828b0161015b565b60408a015190975090506001600160401b0381111561029f57600080fd5b6102ab8a828b0161015b565b9550506102ba606089016101fe565b93506102c8608089016101fe565b60a089015160c08a015191945092506001600160401b038111156102eb57600080fd5b6102f78a828b0161015b565b91505092959891949750929550565b600181811c9082168061031a57607f821691505b60208210810361033a57634e487b7160e01b600052602260045260246000fd5b50919050565b601f82111561038a57806000526020600020601f840160051c810160208510156103675750805b601f840160051c820191505b818110156103875760008155600101610373565b50505b505050565b81516001600160401b038111156103a8576103a8610145565b6103bc816103b68454610306565b84610340565b6020601f8211600181146103f057600083156103d85750848201515b600019600385901b1c1916600184901b178455610387565b600084815260208120601f198516915b828110156104205787850151825560209485019460019092019101610400565b508482101561043e5786840151600019600387901b60f8161c191681555b50505050600190811b01905550565b611c248061045c6000396000f3fe608060405234801561001057600080fd5b50600436106100625760003560e01c806304485841146100675780634019388314610085578063c51db6b2146100a2578063cc24fa03146100bd578063ee5fc4e0146100d2578063f2777e55146100da575b600080fd5b61006f6100ef565b60405161007c9190610995565b60405180910390f35b61008d610151565b60405161007c99989796959493929190610a27565b6009546040516001600160a01b03909116815260200161007c565b6100d06100cb366004610b54565b6103b9565b005b6100d06105c3565b6100e2610692565b60405161007c9190610bf0565b6060600a80548060200260200160405190810160405280929190818152602001828054801561014757602002820191906000526020600020905b81546001600160a01b03168152600190910190602001808311610129575b5050505050905090565b60008054819061016090610cc1565b80601f016020809104026020016040519081016040528092919081815260200182805461018c90610cc1565b80156101d95780601f106101ae576101008083540402835291602001916101d9565b820191906000526020600020905b8154815290600101906020018083116101bc57829003601f168201915b5050505050908060010180546101ee90610cc1565b80601f016020809104026020016040519081016040528092919081815260200182805461021a90610cc1565b80156102675780601f1061023c57610100808354040283529160200191610267565b820191906000526020600020905b81548152906001019060200180831161024a57829003601f168201915b50505050509080600201805461027c90610cc1565b80601f01602080910402602001604051908101604052809291908181526020018280546102a890610cc1565b80156102f55780601f106102ca576101008083540402835291602001916102f5565b820191906000526020600020905b8154815290600101906020018083116102d857829003601f168201915b50505050509080600301805461030a90610cc1565b80601f016020809104026020016040519081016040528092919081815260200182805461033690610cc1565b80156103835780601f1061035857610100808354040283529160200191610383565b820191906000526020600020905b81548152906001019060200180831161036657829003601f168201915b505050600484015460058501546006860154600787015460089097015495966001600160a01b0390931695919450925060ff1689565b60085460ff16156104095760405162461bcd60e51b815260206004820152601560248201527411dbd85b081a185cc81899595b8819195b195d1959605a1b60448201526064015b60405180910390fd5b6004546001600160a01b0316331480610489575060095460405163022b92c360e21b81523360048201526001600160a01b03909116906308ae4b0c90602401602060405180830381865afa158015610465573d6000803e3d6000fd5b505050506040513d601f19601f820116820180604052508101906104899190610cfb565b6104e15760405162461bcd60e51b8152602060048201526024808201527f4d7573742062652065697468657220746865206f776e6572206f722061206d6560448201526336b132b960e11b6064820152608401610400565b6000848484843330600960009054906101000a90046001600160a01b031660405161050b90610988565b61051b9796959493929190610d24565b604051809103906000f080158015610537573d6000803e3d6000fd5b50600a80546001810182556000919091527fc65a7bb8d6351c1cf70c95a316cc6a92839c986682d98bc35f958f4883f9d2a80180546001600160a01b0319166001600160a01b0383169081179091556040519081529091507f35cd7266f05b8cce4c2f14da15f296326c4c3af9097d82dfecf658bde25fa1309060200160405180910390a15050505050565b60085460ff161561060e5760405162461bcd60e51b815260206004820152601560248201527411dbd85b081a185cc81899595b8819195b195d1959605a1b6044820152606401610400565b6004546001600160a01b031633146106585760405162461bcd60e51b815260206004820152600d60248201526c2737ba103a34329037bbb732b960991b6044820152606401610400565b60405133907f7fb2e49c6d2dcc748cced4be404df4b502a5091d84f32f62fa7821b5f9231f6b90600090a26008805460ff19166001179055565b6106ec6040518061012001604052806060815260200160608152602001606081526020016060815260200160006001600160a01b031681526020016000815260200160008152602001600081526020016000151581525090565b60006040518061012001604052908160008201805461070a90610cc1565b80601f016020809104026020016040519081016040528092919081815260200182805461073690610cc1565b80156107835780601f1061075857610100808354040283529160200191610783565b820191906000526020600020905b81548152906001019060200180831161076657829003601f168201915b5050505050815260200160018201805461079c90610cc1565b80601f01602080910402602001604051908101604052809291908181526020018280546107c890610cc1565b80156108155780601f106107ea57610100808354040283529160200191610815565b820191906000526020600020905b8154815290600101906020018083116107f857829003601f168201915b5050505050815260200160028201805461082e90610cc1565b80601f016020809104026020016040519081016040528092919081815260200182805461085a90610cc1565b80156108a75780601f1061087c576101008083540402835291602001916108a7565b820191906000526020600020905b81548152906001019060200180831161088a57829003601f168201915b505050505081526020016003820180546108c090610cc1565b80601f01602080910402602001604051908101604052809291908181526020018280546108ec90610cc1565b80156109395780601f1061090e57610100808354040283529160200191610939565b820191906000526020600020905b81548152906001019060200180831161091c57829003601f168201915b505050918352505060048201546001600160a01b0316602082015260058201546040820152600682015460608201526007820154608082015260089091015460ff16151560a090910152919050565b610e5f80610d9083390190565b602080825282518282018190526000918401906040840190835b818110156109d65783516001600160a01b03168352602093840193909201916001016109af565b509095945050505050565b6000815180845260005b81811015610a07576020818501810151868301820152016109eb565b506000602082860101526020601f19601f83011685010191505092915050565b61012081526000610a3c61012083018c6109e1565b8281036020840152610a4e818c6109e1565b90508281036040840152610a62818b6109e1565b90508281036060840152610a76818a6109e1565b6001600160a01b03989098166080840152505060a081019490945260c084019290925260e0830152151561010090910152949350505050565b634e487b7160e01b600052604160045260246000fd5b600082601f830112610ad657600080fd5b813567ffffffffffffffff811115610af057610af0610aaf565b604051601f8201601f19908116603f0116810167ffffffffffffffff81118282101715610b1f57610b1f610aaf565b604052818152838201602001851015610b3757600080fd5b816020850160208301376000918101602001919091529392505050565b60008060008060808587031215610b6a57600080fd5b843567ffffffffffffffff811115610b8157600080fd5b610b8d87828801610ac5565b945050602085013567ffffffffffffffff811115610baa57600080fd5b610bb687828801610ac5565b935050604085013567ffffffffffffffff811115610bd357600080fd5b610bdf87828801610ac5565b949793965093946060013593505050565b60208152600082516101206020840152610c0e6101408401826109e1565b90506020840151601f19848303016040850152610c2b82826109e1565b9150506040840151601f19848303016060850152610c4982826109e1565b9150506060840151601f19848303016080850152610c6782826109e1565b9150506080840151610c8460a08501826001600160a01b03169052565b5060a084015160c084015260c084015160e084015260e0840151610100840152610100840151610cb961012085018215159052565b509392505050565b600181811c90821680610cd557607f821691505b602082108103610cf557634e487b7160e01b600052602260045260246000fd5b50919050565b600060208284031215610d0d57600080fd5b81518015158114610d1d57600080fd5b9392505050565b60e081526000610d3760e083018a6109e1565b8281036020840152610d49818a6109e1565b90508281036040840152610d5d81896109e1565b606084019790975250506001600160a01b03938416608082015291831660a083015290911660c090910152939250505056fe608060405234801561001057600080fd5b50604051610e5f380380610e5f83398101604081905261002f91610221565b6040805161012081018252888152602081018890529081018690526001600160a01b038416606082015260808101859052600060a082018190524260c083015260e082018190526101008201819052806100898a8261037b565b506020820151600182019061009e908261037b565b50604082015160028201906100b3908261037b565b5060608201516003820180546001600160a01b03199081166001600160a01b03938416179091556080840151600484015560a0840151600584015560c0840151600684015560e084015160078401805460ff191691151591909117905561010090930151600890920191909155600a80548316938216939093179092556009805490911692909116919091179055506104399350505050565b634e487b7160e01b600052604160045260246000fd5b600082601f83011261017357600080fd5b81516001600160401b0381111561018c5761018c61014c565b604051601f8201601f19908116603f011681016001600160401b03811182821017156101ba576101ba61014c565b6040528181528382016020018510156101d257600080fd5b60005b828110156101f1576020818601810151838301820152016101d5565b506000918101602001919091529392505050565b80516001600160a01b038116811461021c57600080fd5b919050565b600080600080600080600060e0888a03121561023c57600080fd5b87516001600160401b0381111561025257600080fd5b61025e8a828b01610162565b60208a015190985090506001600160401b0381111561027c57600080fd5b6102888a828b01610162565b60408a015190975090506001600160401b038111156102a657600080fd5b6102b28a828b01610162565b955050606088015193506102c860808901610205565b92506102d660a08901610205565b91506102e460c08901610205565b905092959891949750929550565b600181811c9082168061030657607f821691505b60208210810361032657634e487b7160e01b600052602260045260246000fd5b50919050565b601f82111561037657806000526020600020601f840160051c810160208510156103535750805b601f840160051c820191505b81811015610373576000815560010161035f565b50505b505050565b81516001600160401b038111156103945761039461014c565b6103a8816103a284546102f2565b8461032c565b6020601f8211600181146103dc57600083156103c45750848201515b600019600385901b1c1916600184901b178455610373565b600084815260208120601f198516915b8281101561040c57878501518255602094850194600190920191016103ec565b508482101561042a5786840151600019600387901b60f8161c191681555b50505050600190811b01905550565b610a17806104486000396000f3fe6080604052600436106100865760003560e01c8063b97a7d2411610059578063b97a7d24146100dd578063c51db6b21461010f578063d87c4be31461012d578063d8bff5a51461015e578063ed88c68e1461018e57600080fd5b80631408ec821461008b5780632c70d64e146100a2578063632a9a52146100aa5780636904b2b3146100b2575b600080fd5b34801561009757600080fd5b506100a0610196565b005b6100a0610246565b6100a061031b565b3480156100be57600080fd5b506100c76104ac565b6040516100d49190610824565b60405180910390f35b3480156100e957600080fd5b506009546001600160a01b03165b6040516001600160a01b0390911681526020016100d4565b34801561011b57600080fd5b50600a546001600160a01b03166100f7565b34801561013957600080fd5b50336000908152600b602052604090205460ff165b60405190151581526020016100d4565b34801561016a57600080fd5b5061014e6101793660046108e4565b600b6020526000908152604090205460ff1681565b6100a061071a565b60075460ff16156101c25760405162461bcd60e51b81526004016101b990610914565b60405180910390fd5b6003546001600160a01b0316331461020c5760405162461bcd60e51b815260206004820152600d60248201526c2737ba103a34329037bbb732b960991b60448201526064016101b9565b60405133907f7fb2e49c6d2dcc748cced4be404df4b502a5091d84f32f62fa7821b5f9231f6b90600090a26007805460ff19166001179055565b60075460ff16156102695760405162461bcd60e51b81526004016101b990610914565b336000908152600b602052604090205460ff166102c15760405162461bcd60e51b8152602060048201526016602482015275155cd95c881a185cc81b9bdd081d9bdd1959081e595d60521b60448201526064016101b9565b6001600060080160008282546102d79190610959565b9091555050336000818152600b6020526040808220805460ff19169055517f574b91ebf1a775434c578a538553d207c9bb627eed6d8823834a4dacc0db5a489190a2565b60075460ff161561033e5760405162461bcd60e51b81526004016101b990610914565b600a5460405163022b92c360e21b81523360048201526001600160a01b03909116906308ae4b0c90602401602060405180830381865afa158015610386573d6000803e3d6000fd5b505050506040513d601f19601f820116820180604052508101906103aa9190610972565b6103f65760405162461bcd60e51b815260206004820152601d60248201527f4e6f742061206d656d626572206f662074686520636f6d6d756e69747900000060448201526064016101b9565b336000908152600b602052604090205460ff161561044f5760405162461bcd60e51b8152602060048201526016602482015275155cd95c881a185cc8185b1c9958591e481d9bdd195960521b60448201526064016101b9565b6001600060080160008282546104659190610994565b9091555050336000818152600b6020526040808220805460ff19166001179055517fc4cae3854c4dc5c5e8de95ee1e12631a8d7e9069dcf5f8b610d52be1b9f892ec9190a2565b61050660405180610120016040528060608152602001606081526020016060815260200160006001600160a01b03168152602001600081526020016000815260200160008152602001600015158152602001600081525090565b600060405180610120016040529081600082018054610524906109a7565b80601f0160208091040260200160405190810160405280929190818152602001828054610550906109a7565b801561059d5780601f106105725761010080835404028352916020019161059d565b820191906000526020600020905b81548152906001019060200180831161058057829003601f168201915b505050505081526020016001820180546105b6906109a7565b80601f01602080910402602001604051908101604052809291908181526020018280546105e2906109a7565b801561062f5780601f106106045761010080835404028352916020019161062f565b820191906000526020600020905b81548152906001019060200180831161061257829003601f168201915b50505050508152602001600282018054610648906109a7565b80601f0160208091040260200160405190810160405280929190818152602001828054610674906109a7565b80156106c15780601f10610696576101008083540402835291602001916106c1565b820191906000526020600020905b8154815290600101906020018083116106a457829003601f168201915b505050918352505060038201546001600160a01b03166020820152600482015460408201526005820154606082015260068201546080820152600782015460ff16151560a082015260089091015460c090910152919050565b60075460ff161561073d5760405162461bcd60e51b81526004016101b990610914565b6000341161078d5760405162461bcd60e51b815260206004820152601f60248201527f446f6e6174696f6e206d7573742062652067726561746572207468616e20300060448201526064016101b9565b34600060050160008282546107a29190610994565b909155505060405134815233907f264f630d9efa0d07053a31163641d9fcc0adafc9d9e76f1c37c2ce3a558d2c529060200160405180910390a2565b6000815180845260005b81811015610804576020818501810151868301820152016107e8565b506000602082860101526020601f19601f83011685010191505092915050565b602081526000825161012060208401526108426101408401826107de565b90506020840151601f1984830301604085015261085f82826107de565b9150506040840151601f1984830301606085015261087d82826107de565b915050606084015161089a60808501826001600160a01b03169052565b50608084015160a084015260a084015160c084015260c084015160e084015260e08401516108cd61010085018215159052565b506101008401516101208401528091505092915050565b6000602082840312156108f657600080fd5b81356001600160a01b038116811461090d57600080fd5b9392505050565b60208082526015908201527412591958481a185cc81899595b8819195b195d1959605a1b604082015260600190565b634e487b7160e01b600052601160045260246000fd5b8181038181111561096c5761096c610943565b92915050565b60006020828403121561098457600080fd5b8151801515811461090d57600080fd5b8082018082111561096c5761096c610943565b600181811c908216806109bb57607f821691505b6020821081036109db57634e487b7160e01b600052602260045260246000fd5b5091905056fea2646970667358221220010ea1c89c9eaf6559c338a61a40be2ff201cd438e9b6786b4dba7e2928b5bb564736f6c634300081a0033a264697066735822122066505b989686a35e623a67a566b18f986209c98a295692dff0ed997d76d108ff64736f6c634300081a0033a264697066735822122086692ac5787f6bd355aada0f188e8322d3b867a32ee788c7109750e1eb9216aa64736f6c634300081a0033a2646970667358221220ccd5cf659721bd960e21a40abe2a8e37df6c3dec2d5df9f009e28795f7d0ec3564736f6c634300081a0033",
  "linkReferences": {},
  "deployedLinkReferences": {}
}