{
  "_format": "hh-sol-artifact-1",
  "contractName": "Idea",
  "sourceName": "contracts/Idea.sol",
  "abi": [
    {
      "inputs": [
        {
          "internalType": "string",
          "name": "_name",
          "type": "string"
        },
        {
          "internalType": "string",
          "name": "_description",
          "type": "string"
        },
        {
          "internalType": "string",
          "name": "_image",
          "type": "string"
        },
        {
          "internalType": "uint256",
          "name": "_donationsTarget",
          "type": "uint256"
        },
        {
          "internalType": "address",
          "name": "_owner",
          "type": "address"
        },
        {
          "internalType": "address payable",
          "name": "_goal",
          "type": "address"
        },
        {
          "internalType": "address",
          "name": "_community",
          "type": "address"
        }
      ],
      "stateMutability": "nonpayable",
      "type": "constructor"
    },
    {
      "anonymous": false,
      "inputs": [
        {
          "indexed": true,
          "internalType": "address",
          "name": "owner",
          "type": "address"
        }
      ],
      "name": "Deleted",
      "type": "event"
    },
    {
      "anonymous": false,
      "inputs": [
        {
          "indexed": true,
          "internalType": "address",
          "name": "donor",
          "type": "address"
        },
        {
          "indexed": false,
          "internalType": "uint256",
          "name": "amount",
          "type": "uint256"
        }
      ],
      "name": "DonationReceived",
      "type": "event"
    },
    {
      "anonymous": false,
      "inputs": [
        {
          "indexed": true,
          "internalType": "address",
          "name": "voter",
          "type": "address"
        }
      ],
      "name": "UnvotedIdea",
      "type": "event"
    },
    {
      "anonymous": false,
      "inputs": [
        {
          "indexed": true,
          "internalType": "address",
          "name": "voter",
          "type": "address"
        }
      ],
      "name": "VotedIdea",
      "type": "event"
    },
    {
      "inputs": [],
      "name": "deleteIdea",
      "outputs": [],
      "stateMutability": "nonpayable",
      "type": "function"
    },
    {
      "inputs": [],
      "name": "donate",
      "outputs": [],
      "stateMutability": "payable",
      "type": "function"
    },
    {
      "inputs": [],
      "name": "getCommunity",
      "outputs": [
        {
          "internalType": "address",
          "name": "",
          "type": "address"
        }
      ],
      "stateMutability": "view",
      "type": "function"
    },
    {
      "inputs": [],
      "name": "getGoal",
      "outputs": [
        {
          "internalType": "address",
          "name": "",
          "type": "address"
        }
      ],
      "stateMutability": "view",
      "type": "function"
    },
    {
      "inputs": [],
      "name": "isVoter",
      "outputs": [
        {
          "internalType": "bool",
          "name": "",
          "type": "bool"
        }
      ],
      "stateMutability": "view",
      "type": "function"
    },
    {
      "inputs": [],
      "name": "unVote",
      "outputs": [],
      "stateMutability": "payable",
      "type": "function"
    },
    {
      "inputs": [],
      "name": "viewIdea",
      "outputs": [
        {
          "components": [
            {
              "internalType": "string",
              "name": "name",
              "type": "string"
            },
            {
              "internalType": "string",
              "name": "description",
              "type": "string"
            },
            {
              "internalType": "string",
              "name": "image",
              "type": "string"
            },
            {
              "internalType": "address",
              "name": "owner",
              "type": "address"
            },
            {
              "internalType": "uint256",
              "name": "donationsTarget",
              "type": "uint256"
            },
            {
              "internalType": "uint256",
              "name": "donationsReceived",
              "type": "uint256"
            },
            {
              "internalType": "uint256",
              "name": "createdAt",
              "type": "uint256"
            },
            {
              "internalType": "bool",
              "name": "deleted",
              "type": "bool"
            },
            {
              "internalType": "uint256",
              "name": "votesCount",
              "type": "uint256"
            }
          ],
          "internalType": "struct Idea.IdeaInfo",
          "name": "",
          "type": "tuple"
        }
      ],
      "stateMutability": "view",
      "type": "function"
    },
    {
      "inputs": [],
      "name": "vote",
      "outputs": [],
      "stateMutability": "payable",
      "type": "function"
    },
    {
      "inputs": [
        {
          "internalType": "address",
          "name": "",
          "type": "address"
        }
      ],
      "name": "votes",
      "outputs": [
        {
          "internalType": "bool",
          "name": "",
          "type": "bool"
        }
      ],
      "stateMutability": "view",
      "type": "function"
    }
  ],
  "bytecode": "0x608060405234801561001057600080fd5b50604051610e5f380380610e5f83398101604081905261002f91610221565b6040805161012081018252888152602081018890529081018690526001600160a01b038416606082015260808101859052600060a082018190524260c083015260e082018190526101008201819052806100898a8261037b565b506020820151600182019061009e908261037b565b50604082015160028201906100b3908261037b565b5060608201516003820180546001600160a01b03199081166001600160a01b03938416179091556080840151600484015560a0840151600584015560c0840151600684015560e084015160078401805460ff191691151591909117905561010090930151600890920191909155600a80548316938216939093179092556009805490911692909116919091179055506104399350505050565b634e487b7160e01b600052604160045260246000fd5b600082601f83011261017357600080fd5b81516001600160401b0381111561018c5761018c61014c565b604051601f8201601f19908116603f011681016001600160401b03811182821017156101ba576101ba61014c565b6040528181528382016020018510156101d257600080fd5b60005b828110156101f1576020818601810151838301820152016101d5565b506000918101602001919091529392505050565b80516001600160a01b038116811461021c57600080fd5b919050565b600080600080600080600060e0888a03121561023c57600080fd5b87516001600160401b0381111561025257600080fd5b61025e8a828b01610162565b60208a015190985090506001600160401b0381111561027c57600080fd5b6102888a828b01610162565b60408a015190975090506001600160401b038111156102a657600080fd5b6102b28a828b01610162565b955050606088015193506102c860808901610205565b92506102d660a08901610205565b91506102e460c08901610205565b905092959891949750929550565b600181811c9082168061030657607f821691505b60208210810361032657634e487b7160e01b600052602260045260246000fd5b50919050565b601f82111561037657806000526020600020601f840160051c810160208510156103535750805b601f840160051c820191505b81811015610373576000815560010161035f565b50505b505050565b81516001600160401b038111156103945761039461014c565b6103a8816103a284546102f2565b8461032c565b6020601f8211600181146103dc57600083156103c45750848201515b600019600385901b1c1916600184901b178455610373565b600084815260208120601f198516915b8281101561040c57878501518255602094850194600190920191016103ec565b508482101561042a5786840151600019600387901b60f8161c191681555b50505050600190811b01905550565b610a17806104486000396000f3fe6080604052600436106100865760003560e01c8063b97a7d2411610059578063b97a7d24146100dd578063c51db6b21461010f578063d87c4be31461012d578063d8bff5a51461015e578063ed88c68e1461018e57600080fd5b80631408ec821461008b5780632c70d64e146100a2578063632a9a52146100aa5780636904b2b3146100b2575b600080fd5b34801561009757600080fd5b506100a0610196565b005b6100a0610246565b6100a061031b565b3480156100be57600080fd5b506100c76104ac565b6040516100d49190610824565b60405180910390f35b3480156100e957600080fd5b506009546001600160a01b03165b6040516001600160a01b0390911681526020016100d4565b34801561011b57600080fd5b50600a546001600160a01b03166100f7565b34801561013957600080fd5b50336000908152600b602052604090205460ff165b60405190151581526020016100d4565b34801561016a57600080fd5b5061014e6101793660046108e4565b600b6020526000908152604090205460ff1681565b6100a061071a565b60075460ff16156101c25760405162461bcd60e51b81526004016101b990610914565b60405180910390fd5b6003546001600160a01b0316331461020c5760405162461bcd60e51b815260206004820152600d60248201526c2737ba103a34329037bbb732b960991b60448201526064016101b9565b60405133907f7fb2e49c6d2dcc748cced4be404df4b502a5091d84f32f62fa7821b5f9231f6b90600090a26007805460ff19166001179055565b60075460ff16156102695760405162461bcd60e51b81526004016101b990610914565b336000908152600b602052604090205460ff166102c15760405162461bcd60e51b8152602060048201526016602482015275155cd95c881a185cc81b9bdd081d9bdd1959081e595d60521b60448201526064016101b9565b6001600060080160008282546102d79190610959565b9091555050336000818152600b6020526040808220805460ff19169055517f574b91ebf1a775434c578a538553d207c9bb627eed6d8823834a4dacc0db5a489190a2565b60075460ff161561033e5760405162461bcd60e51b81526004016101b990610914565b600a5460405163022b92c360e21b81523360048201526001600160a01b03909116906308ae4b0c90602401602060405180830381865afa158015610386573d6000803e3d6000fd5b505050506040513d601f19601f820116820180604052508101906103aa9190610972565b6103f65760405162461bcd60e51b815260206004820152601d60248201527f4e6f742061206d656d626572206f662074686520636f6d6d756e69747900000060448201526064016101b9565b336000908152600b602052604090205460ff161561044f5760405162461bcd60e51b8152602060048201526016602482015275155cd95c881a185cc8185b1c9958591e481d9bdd195960521b60448201526064016101b9565b6001600060080160008282546104659190610994565b9091555050336000818152600b6020526040808220805460ff19166001179055517fc4cae3854c4dc5c5e8de95ee1e12631a8d7e9069dcf5f8b610d52be1b9f892ec9190a2565b61050660405180610120016040528060608152602001606081526020016060815260200160006001600160a01b03168152602001600081526020016000815260200160008152602001600015158152602001600081525090565b600060405180610120016040529081600082018054610524906109a7565b80601f0160208091040260200160405190810160405280929190818152602001828054610550906109a7565b801561059d5780601f106105725761010080835404028352916020019161059d565b820191906000526020600020905b81548152906001019060200180831161058057829003601f168201915b505050505081526020016001820180546105b6906109a7565b80601f01602080910402602001604051908101604052809291908181526020018280546105e2906109a7565b801561062f5780601f106106045761010080835404028352916020019161062f565b820191906000526020600020905b81548152906001019060200180831161061257829003601f168201915b50505050508152602001600282018054610648906109a7565b80601f0160208091040260200160405190810160405280929190818152602001828054610674906109a7565b80156106c15780601f10610696576101008083540402835291602001916106c1565b820191906000526020600020905b8154815290600101906020018083116106a457829003601f168201915b505050918352505060038201546001600160a01b03166020820152600482015460408201526005820154606082015260068201546080820152600782015460ff16151560a082015260089091015460c090910152919050565b60075460ff161561073d5760405162461bcd60e51b81526004016101b990610914565b6000341161078d5760405162461bcd60e51b815260206004820152601f60248201527f446f6e6174696f6e206d7573742062652067726561746572207468616e20300060448201526064016101b9565b34600060050160008282546107a29190610994565b909155505060405134815233907f264f630d9efa0d07053a31163641d9fcc0adafc9d9e76f1c37c2ce3a558d2c529060200160405180910390a2565b6000815180845260005b81811015610804576020818501810151868301820152016107e8565b506000602082860101526020601f19601f83011685010191505092915050565b602081526000825161012060208401526108426101408401826107de565b90506020840151601f1984830301604085015261085f82826107de565b9150506040840151601f1984830301606085015261087d82826107de565b915050606084015161089a60808501826001600160a01b03169052565b50608084015160a084015260a084015160c084015260c084015160e084015260e08401516108cd61010085018215159052565b506101008401516101208401528091505092915050565b6000602082840312156108f657600080fd5b81356001600160a01b038116811461090d57600080fd5b9392505050565b60208082526015908201527412591958481a185cc81899595b8819195b195d1959605a1b604082015260600190565b634e487b7160e01b600052601160045260246000fd5b8181038181111561096c5761096c610943565b92915050565b60006020828403121561098457600080fd5b8151801515811461090d57600080fd5b8082018082111561096c5761096c610943565b600181811c908216806109bb57607f821691505b6020821081036109db57634e487b7160e01b600052602260045260246000fd5b5091905056fea2646970667358221220010ea1c89c9eaf6559c338a61a40be2ff201cd438e9b6786b4dba7e2928b5bb564736f6c634300081a0033",
  "linkReferences": {},
  "deployedLinkReferences": {}
}